{
  "transactions": [
    {
      "hash": "0x31d1c37387d7eabba1c6c921eb61e556861012a6441ecf9776e3bf04fa33a55b",
      "transactionType": "CALL",
      "contractName": null,
      "contractAddress": "0x5d29f6180a7a3d02623c1f74e4244c53beaa1c53",
      "function": "register(string,string,string[],bytes32[],address,address)",
      "arguments": [
        "WETH",
        "Exposes WETH contract functionality, including deposit and withdraw.",
        "[function balanceOf(address owner) external view returns (uint256 balance), function transfer(address dst, uint256 wad) external returns (bool success), function transferFrom(address src, address dst, uint256 wad) external returns (bool success), function approve(address guy, uint256 wad) external returns (bool success), function allowance(address owner, address spender) external view returns (uint256 remaining), function deposit() public payable, function withdraw(uint wad) public, function totalSupply() public view returns (uint supply)]",
        "[0x6465666900000000000000000000000000000000000000000000000000000000, 0x6572633230000000000000000000000000000000000000000000000000000000, 0x7765746800000000000000000000000000000000000000000000000000000000]",
        "0x4200000000000000000000000000000000000006",
        "0x9FE1776d6F7CF1014Aa51fd337d3C1a6134EAabE"
      ],
      "transaction": {
        "from": "0x9fe1776d6f7cf1014aa51fd337d3c1a6134eaabe",
        "to": "0x5d29f6180a7a3d02623c1f74e4244c53beaa1c53",
        "gas": "0x17c39a",
        "value": "0x0",
        "input": "0x564e787300000000000000000000000000000000000000000000000000000000000000c000000000000000000000000000000000000000000000000000000000000001000000000000000000000000000000000000000000000000000000000000000180000000000000000000000000000000000000000000000000000000000000064000000000000000000000000042000000000000000000000000000000000000060000000000000000000000009fe1776d6f7cf1014aa51fd337d3c1a6134eaabe0000000000000000000000000000000000000000000000000000000000000004574554480000000000000000000000000000000000000000000000000000000000000000000000000000000000000000000000000000000000000000000000444578706f736573205745544820636f6e74726163742066756e6374696f6e616c6974792c20696e636c7564696e67206465706f73697420616e642077697468647261772e00000000000000000000000000000000000000000000000000000000000000000000000000000000000000000000000000000000000000000000000800000000000000000000000000000000000000000000000000000000000001000000000000000000000000000000000000000000000000000000000000000180000000000000000000000000000000000000000000000000000000000000020000000000000000000000000000000000000000000000000000000000000002800000000000000000000000000000000000000000000000000000000000000300000000000000000000000000000000000000000000000000000000000000038000000000000000000000000000000000000000000000000000000000000003e00000000000000000000000000000000000000000000000000000000000000440000000000000000000000000000000000000000000000000000000000000004966756e6374696f6e2062616c616e63654f662861646472657373206f776e6572292065787465726e616c20766965772072657475726e73202875696e743235362062616c616e6365290000000000000000000000000000000000000000000000000000000000000000000000000000000000000000000000000000000000004b66756e6374696f6e207472616e736665722861646472657373206473742c2075696e7432353620776164292065787465726e616c2072657475726e732028626f6f6c207375636365737329000000000000000000000000000000000000000000000000000000000000000000000000000000000000000000000000000000005c66756e6374696f6e207472616e7366657246726f6d2861646472657373207372632c2061646472657373206473742c2075696e7432353620776164292065787465726e616c2072657475726e732028626f6f6c20737563636573732900000000000000000000000000000000000000000000000000000000000000000000004a66756e6374696f6e20617070726f76652861646472657373206775792c2075696e7432353620776164292065787465726e616c2072657475726e732028626f6f6c20737563636573732900000000000000000000000000000000000000000000000000000000000000000000000000000000000000000000000000000000005c66756e6374696f6e20616c6c6f77616e63652861646472657373206f776e65722c2061646472657373207370656e646572292065787465726e616c20766965772072657475726e73202875696e743235362072656d61696e696e672900000000000000000000000000000000000000000000000000000000000000000000002166756e6374696f6e206465706f7369742829207075626c69632070617961626c6500000000000000000000000000000000000000000000000000000000000000000000000000000000000000000000000000000000000000000000000000002266756e6374696f6e2077697468647261772875696e742077616429207075626c6963000000000000000000000000000000000000000000000000000000000000000000000000000000000000000000000000000000000000000000000000003866756e6374696f6e20746f74616c537570706c792829207075626c696320766965772072657475726e73202875696e7420737570706c792900000000000000000000000000000000000000000000000000000000000000000000000000000003646566690000000000000000000000000000000000000000000000000000000065726332300000000000000000000000000000000000000000000000000000007765746800000000000000000000000000000000000000000000000000000000",
        "nonce": "0x12",
        "chainId": "0x14a34"
      },
      "additionalContracts": [],
      "isFixedGasLimit": false
    }
  ],
  "receipts": [
    {
      "status": "0x1",
      "cumulativeGasUsed": "0x6d95aa",
      "logs": [
        {
          "address": "0x5d29f6180a7a3d02623c1f74e4244c53beaa1c53",
          "topics": [
            "0x4ffd586bfa5bafcd529c420c55e3b3ee10c1be5f4e8bfa52cf7e396e9986b116",
            "0x0000000000000000000000009fe1776d6f7cf1014aa51fd337d3c1a6134eaabe",
            "0x6465666900000000000000000000000000000000000000000000000000000000"
          ],
          "data": "0x00000000000000000000000000000000000000000000000000000000000000010000000000000000000000000000000000000000000000000000000000000060000000000000000000000000420000000000000000000000000000000000000600000000000000000000000000000000000000000000000000000000000000045745544800000000000000000000000000000000000000000000000000000000",
          "blockHash": "0x7ebd277a63539bfc025d8cefe08547e51c4c84082835345bb980061c48398798",
          "blockNumber": "0x14a866c",
          "transactionHash": "0x31d1c37387d7eabba1c6c921eb61e556861012a6441ecf9776e3bf04fa33a55b",
          "transactionIndex": "0x2d",
          "logIndex": "0x66",
          "removed": false
        },
        {
          "address": "0x5d29f6180a7a3d02623c1f74e4244c53beaa1c53",
          "topics": [
            "0x4ffd586bfa5bafcd529c420c55e3b3ee10c1be5f4e8bfa52cf7e396e9986b116",
            "0x0000000000000000000000009fe1776d6f7cf1014aa51fd337d3c1a6134eaabe",
            "0x6572633230000000000000000000000000000000000000000000000000000000"
          ],
          "data": "0x00000000000000000000000000000000000000000000000000000000000000010000000000000000000000000000000000000000000000000000000000000060000000000000000000000000420000000000000000000000000000000000000600000000000000000000000000000000000000000000000000000000000000045745544800000000000000000000000000000000000000000000000000000000",
          "blockHash": "0x7ebd277a63539bfc025d8cefe08547e51c4c84082835345bb980061c48398798",
          "blockNumber": "0x14a866c",
          "transactionHash": "0x31d1c37387d7eabba1c6c921eb61e556861012a6441ecf9776e3bf04fa33a55b",
          "transactionIndex": "0x2d",
          "logIndex": "0x67",
          "removed": false
        },
        {
          "address": "0x5d29f6180a7a3d02623c1f74e4244c53beaa1c53",
          "topics": [
            "0x6d161e1a01700d06f35f468bcfbe1104e92980380656e034e6faaab354c5d207",
            "0x7765746800000000000000000000000000000000000000000000000000000000"
          ],
          "data": "0x0000000000000000000000000000000000000000000000000000000000000001",
          "blockHash": "0x7ebd277a63539bfc025d8cefe08547e51c4c84082835345bb980061c48398798",
          "blockNumber": "0x14a866c",
          "transactionHash": "0x31d1c37387d7eabba1c6c921eb61e556861012a6441ecf9776e3bf04fa33a55b",
          "transactionIndex": "0x2d",
          "logIndex": "0x68",
          "removed": false
        },
        {
          "address": "0x5d29f6180a7a3d02623c1f74e4244c53beaa1c53",
          "topics": [
            "0x4ffd586bfa5bafcd529c420c55e3b3ee10c1be5f4e8bfa52cf7e396e9986b116",
            "0x0000000000000000000000009fe1776d6f7cf1014aa51fd337d3c1a6134eaabe",
            "0x7765746800000000000000000000000000000000000000000000000000000000"
          ],
          "data": "0x00000000000000000000000000000000000000000000000000000000000000010000000000000000000000000000000000000000000000000000000000000060000000000000000000000000420000000000000000000000000000000000000600000000000000000000000000000000000000000000000000000000000000045745544800000000000000000000000000000000000000000000000000000000",
          "blockHash": "0x7ebd277a63539bfc025d8cefe08547e51c4c84082835345bb980061c48398798",
          "blockNumber": "0x14a866c",
          "transactionHash": "0x31d1c37387d7eabba1c6c921eb61e556861012a6441ecf9776e3bf04fa33a55b",
          "transactionIndex": "0x2d",
          "logIndex": "0x69",
          "removed": false
        }
      ],
      "logsBloom": "0x000000000000000000000040000000000000000000000000000000000000000000000000001000000000000000000000000000000000000000000000000000000000000001000000000000000000000000000400080800000000000100000000000000008000000000000000000000000000000000000000000000000000000000000040000000000000004040000000000000000000000000000000000000000000000000000040000000000a0000000080000000020000000000000000000000000000000000000000000000000000000000000000000080080000000400000000000000100000000000000000000000000000000080000000000000000000",
      "type": "0x2",
      "transactionHash": "0x31d1c37387d7eabba1c6c921eb61e556861012a6441ecf9776e3bf04fa33a55b",
      "transactionIndex": "0x2d",
      "blockHash": "0x7ebd277a63539bfc025d8cefe08547e51c4c84082835345bb980061c48398798",
      "blockNumber": "0x14a866c",
      "gasUsed": "0x11346c",
      "effectiveGasPrice": "0x9f046",
      "from": "0x9fe1776d6f7cf1014aa51fd337d3c1a6134eaabe",
      "to": "0x5d29f6180a7a3d02623c1f74e4244c53beaa1c53",
      "contractAddress": null,
      "l1BaseFeeScalar": "0x44d",
      "l1BlobBaseFee": "0x1",
      "l1BlobBaseFeeScalar": "0xa118b",
      "l1Fee": "0x183b34902c",
      "l1GasPrice": "0x2bd7f4d36",
      "l1GasUsed": "0x1f5f"
    }
  ],
  "libraries": [],
  "pending": [],
  "returns": {},
  "timestamp": 1739090873,
  "chain": 84532,
  "commit": "091a489"
}