{
  "transactions": [
    {
      "hash": "0xad37acaa4a6b8d089161c8293f1280ada48eac542f1fb5b1080eddcb706d69e7",
      "transactionType": "CALL",
      "contractName": null,
      "contractAddress": "0x5d29f6180a7a3d02623c1f74e4244c53beaa1c53",
      "function": "register(string,string,string[],bytes32[],address,address)",
      "arguments": [
        "Tea Token",
        "Exposes all ERC20 interface actions for the target token.",
        "[function balanceOf(address _owner) external view returns (uint256 balance), function transfer(address _to, uint256 _value) external returns (bool success), function transferFrom(address _from, address _to, uint256 _value) external returns (bool success), function approve(address _spender, uint256 _value) external returns (bool success), function allowance(address _owner, address _spender) external view returns (uint256 remaining)]",
        "[0x6465666900000000000000000000000000000000000000000000000000000000, 0x6572633230000000000000000000000000000000000000000000000000000000]",
        "0x87C51CD469A0E1E2aF0e0e597fD88D9Ae4BaA967",
        "0x9FE1776d6F7CF1014Aa51fd337d3C1a6134EAabE"
      ],
      "transaction": {
        "from": "0x9fe1776d6f7cf1014aa51fd337d3c1a6134eaabe",
        "to": "0x5d29f6180a7a3d02623c1f74e4244c53beaa1c53",
        "gas": "0x13b314",
        "value": "0x0",
        "input": "0x564e787300000000000000000000000000000000000000000000000000000000000000c00000000000000000000000000000000000000000000000000000000000000100000000000000000000000000000000000000000000000000000000000000016000000000000000000000000000000000000000000000000000000000000004c000000000000000000000000087c51cd469a0e1e2af0e0e597fd88d9ae4baa9670000000000000000000000009fe1776d6f7cf1014aa51fd337d3c1a6134eaabe000000000000000000000000000000000000000000000000000000000000000954656120546f6b656e000000000000000000000000000000000000000000000000000000000000000000000000000000000000000000000000000000000000394578706f73657320616c6c20455243323020696e7465726661636520616374696f6e7320666f72207468652074617267657420746f6b656e2e00000000000000000000000000000000000000000000000000000000000000000000000000000500000000000000000000000000000000000000000000000000000000000000a0000000000000000000000000000000000000000000000000000000000000012000000000000000000000000000000000000000000000000000000000000001a0000000000000000000000000000000000000000000000000000000000000024000000000000000000000000000000000000000000000000000000000000002c0000000000000000000000000000000000000000000000000000000000000004a66756e6374696f6e2062616c616e63654f662861646472657373205f6f776e6572292065787465726e616c20766965772072657475726e73202875696e743235362062616c616e63652900000000000000000000000000000000000000000000000000000000000000000000000000000000000000000000000000000000004e66756e6374696f6e207472616e736665722861646472657373205f746f2c2075696e74323536205f76616c7565292065787465726e616c2072657475726e732028626f6f6c207375636365737329000000000000000000000000000000000000000000000000000000000000000000000000000000000000000000000000006166756e6374696f6e207472616e7366657246726f6d2861646472657373205f66726f6d2c2061646472657373205f746f2c2075696e74323536205f76616c7565292065787465726e616c2072657475726e732028626f6f6c20737563636573732900000000000000000000000000000000000000000000000000000000000000000000000000000000000000000000000000000000000000000000000000005266756e6374696f6e20617070726f76652861646472657373205f7370656e6465722c2075696e74323536205f76616c7565292065787465726e616c2072657475726e732028626f6f6c2073756363657373290000000000000000000000000000000000000000000000000000000000000000000000000000000000000000005e66756e6374696f6e20616c6c6f77616e63652861646472657373205f6f776e65722c2061646472657373205f7370656e646572292065787465726e616c20766965772072657475726e73202875696e743235362072656d61696e696e67290000000000000000000000000000000000000000000000000000000000000000000264656669000000000000000000000000000000000000000000000000000000006572633230000000000000000000000000000000000000000000000000000000",
        "nonce": "0x11",
        "chainId": "0x14a34"
      },
      "additionalContracts": [],
      "isFixedGasLimit": false
    }
  ],
  "receipts": [
    {
      "status": "0x1",
      "cumulativeGasUsed": "0x50c9d6",
      "logs": [
        {
          "address": "0x5d29f6180a7a3d02623c1f74e4244c53beaa1c53",
          "topics": [
            "0x6d161e1a01700d06f35f468bcfbe1104e92980380656e034e6faaab354c5d207",
            "0x6465666900000000000000000000000000000000000000000000000000000000"
          ],
          "data": "0x0000000000000000000000000000000000000000000000000000000000000000",
          "blockHash": "0x3946cdc099c0caea6b76213550fc332771adc0b04759908ab215e104df70556d",
          "blockNumber": "0x14a8660",
          "transactionHash": "0xad37acaa4a6b8d089161c8293f1280ada48eac542f1fb5b1080eddcb706d69e7",
          "transactionIndex": "0x22",
          "logIndex": "0x67",
          "removed": false
        },
        {
          "address": "0x5d29f6180a7a3d02623c1f74e4244c53beaa1c53",
          "topics": [
            "0x4ffd586bfa5bafcd529c420c55e3b3ee10c1be5f4e8bfa52cf7e396e9986b116",
            "0x0000000000000000000000009fe1776d6f7cf1014aa51fd337d3c1a6134eaabe",
            "0x6465666900000000000000000000000000000000000000000000000000000000"
          ],
          "data": "0x0000000000000000000000000000000000000000000000000000000000000000000000000000000000000000000000000000000000000000000000000000006000000000000000000000000087c51cd469a0e1e2af0e0e597fd88d9ae4baa967000000000000000000000000000000000000000000000000000000000000000954656120546f6b656e0000000000000000000000000000000000000000000000",
          "blockHash": "0x3946cdc099c0caea6b76213550fc332771adc0b04759908ab215e104df70556d",
          "blockNumber": "0x14a8660",
          "transactionHash": "0xad37acaa4a6b8d089161c8293f1280ada48eac542f1fb5b1080eddcb706d69e7",
          "transactionIndex": "0x22",
          "logIndex": "0x68",
          "removed": false
        },
        {
          "address": "0x5d29f6180a7a3d02623c1f74e4244c53beaa1c53",
          "topics": [
            "0x6d161e1a01700d06f35f468bcfbe1104e92980380656e034e6faaab354c5d207",
            "0x6572633230000000000000000000000000000000000000000000000000000000"
          ],
          "data": "0x0000000000000000000000000000000000000000000000000000000000000000",
          "blockHash": "0x3946cdc099c0caea6b76213550fc332771adc0b04759908ab215e104df70556d",
          "blockNumber": "0x14a8660",
          "transactionHash": "0xad37acaa4a6b8d089161c8293f1280ada48eac542f1fb5b1080eddcb706d69e7",
          "transactionIndex": "0x22",
          "logIndex": "0x69",
          "removed": false
        },
        {
          "address": "0x5d29f6180a7a3d02623c1f74e4244c53beaa1c53",
          "topics": [
            "0x4ffd586bfa5bafcd529c420c55e3b3ee10c1be5f4e8bfa52cf7e396e9986b116",
            "0x0000000000000000000000009fe1776d6f7cf1014aa51fd337d3c1a6134eaabe",
            "0x6572633230000000000000000000000000000000000000000000000000000000"
          ],
          "data": "0x0000000000000000000000000000000000000000000000000000000000000000000000000000000000000000000000000000000000000000000000000000006000000000000000000000000087c51cd469a0e1e2af0e0e597fd88d9ae4baa967000000000000000000000000000000000000000000000000000000000000000954656120546f6b656e0000000000000000000000000000000000000000000000",
          "blockHash": "0x3946cdc099c0caea6b76213550fc332771adc0b04759908ab215e104df70556d",
          "blockNumber": "0x14a8660",
          "transactionHash": "0xad37acaa4a6b8d089161c8293f1280ada48eac542f1fb5b1080eddcb706d69e7",
          "transactionIndex": "0x22",
          "logIndex": "0x6a",
          "removed": false
        }
      ],
      "logsBloom": "0x00000000000000000000004000000000000000000000000000000000000000000000000000100000000000000000000000000000000000000000000000000000000000000100000000000000000000000000040000080000000000010000000000000000800000000000000000000000000000000000000000000000000000000000004000000000000000400000000000000000000000000000000000000000000000000000004000000000080000000080000000020000000000000000000000000000000000000000000000000000000000000000000080080000000400000000000000100000000000000000000000000000000080000000000000000000",
      "type": "0x2",
      "transactionHash": "0xad37acaa4a6b8d089161c8293f1280ada48eac542f1fb5b1080eddcb706d69e7",
      "transactionIndex": "0x22",
      "blockHash": "0x3946cdc099c0caea6b76213550fc332771adc0b04759908ab215e104df70556d",
      "blockNumber": "0x14a8660",
      "gasUsed": "0xd7843",
      "effectiveGasPrice": "0xa3eec",
      "from": "0x9fe1776d6f7cf1014aa51fd337d3c1a6134eaabe",
      "to": "0x5d29f6180a7a3d02623c1f74e4244c53beaa1c53",
      "contractAddress": null,
      "l1BaseFeeScalar": "0x44d",
      "l1BlobBaseFee": "0x1",
      "l1BlobBaseFeeScalar": "0xa118b",
      "l1Fee": "0x1796b3ed13",
      "l1GasPrice": "0x310eb1214",
      "l1GasUsed": "0x1b4b"
    }
  ],
  "libraries": [],
  "pending": [],
  "returns": {},
  "timestamp": 1739090849,
  "chain": 84532,
  "commit": "091a489"
}